{
  "contractName": "NftLinker",
  "abi": [
    {
      "inputs": [
        {
          "internalType": "string",
          "name": "chainName_",
          "type": "string"
        },
        {
          "internalType": "address",
          "name": "gateway_",
          "type": "address"
        },
        {
          "internalType": "address",
          "name": "gasReceiver_",
          "type": "address"
        }
      ],
      "stateMutability": "nonpayable",
      "type": "constructor"
    },
    {
      "inputs": [],
      "name": "AlreadyInitialized",
      "type": "error"
    },
    {
      "inputs": [],
      "name": "NotApprovedByGateway",
      "type": "error"
    },
    {
      "anonymous": false,
      "inputs": [
        {
          "indexed": true,
          "internalType": "address",
          "name": "owner",
          "type": "address"
        },
        {
          "indexed": true,
          "internalType": "address",
          "name": "approved",
          "type": "address"
        },
        {
          "indexed": true,
          "internalType": "uint256",
          "name": "tokenId",
          "type": "uint256"
        }
      ],
      "name": "Approval",
      "type": "event"
    },
    {
      "anonymous": false,
      "inputs": [
        {
          "indexed": true,
          "internalType": "address",
          "name": "owner",
          "type": "address"
        },
        {
          "indexed": true,
          "internalType": "address",
          "name": "operator",
          "type": "address"
        },
        {
          "indexed": false,
          "internalType": "bool",
          "name": "approved",
          "type": "bool"
        }
      ],
      "name": "ApprovalForAll",
      "type": "event"
    },
    {
      "anonymous": false,
      "inputs": [
        {
          "indexed": true,
          "internalType": "address",
          "name": "from",
          "type": "address"
        },
        {
          "indexed": true,
          "internalType": "address",
          "name": "to",
          "type": "address"
        },
        {
          "indexed": true,
          "internalType": "uint256",
          "name": "tokenId",
          "type": "uint256"
        }
      ],
      "name": "Transfer",
      "type": "event"
    },
    {
      "inputs": [
        {
          "internalType": "address",
          "name": "to",
          "type": "address"
        },
        {
          "internalType": "uint256",
          "name": "tokenId",
          "type": "uint256"
        }
      ],
      "name": "approve",
      "outputs": [],
      "stateMutability": "nonpayable",
      "type": "function"
    },
    {
      "inputs": [
        {
          "internalType": "address",
          "name": "owner",
          "type": "address"
        }
      ],
      "name": "balanceOf",
      "outputs": [
        {
          "internalType": "uint256",
          "name": "",
          "type": "uint256"
        }
      ],
      "stateMutability": "view",
      "type": "function",
      "constant": true
    },
    {
      "inputs": [
        {
          "internalType": "bytes32",
          "name": "commandId",
          "type": "bytes32"
        },
        {
          "internalType": "string",
          "name": "sourceChain",
          "type": "string"
        },
        {
          "internalType": "string",
          "name": "sourceAddress",
          "type": "string"
        },
        {
          "internalType": "bytes",
          "name": "payload",
          "type": "bytes"
        }
      ],
      "name": "execute",
      "outputs": [],
      "stateMutability": "nonpayable",
      "type": "function"
    },
    {
      "inputs": [
        {
          "internalType": "bytes32",
          "name": "commandId",
          "type": "bytes32"
        },
        {
          "internalType": "string",
          "name": "sourceChain",
          "type": "string"
        },
        {
          "internalType": "string",
          "name": "sourceAddress",
          "type": "string"
        },
        {
          "internalType": "bytes",
          "name": "payload",
          "type": "bytes"
        },
        {
          "internalType": "string",
          "name": "tokenSymbol",
          "type": "string"
        },
        {
          "internalType": "uint256",
          "name": "amount",
          "type": "uint256"
        }
      ],
      "name": "executeWithToken",
      "outputs": [],
      "stateMutability": "nonpayable",
      "type": "function"
    },
    {
      "inputs": [],
      "name": "gateway",
      "outputs": [
        {
          "internalType": "contract IAxelarGateway",
          "name": "",
          "type": "address"
        }
      ],
      "stateMutability": "view",
      "type": "function",
      "constant": true
    },
    {
      "inputs": [
        {
          "internalType": "uint256",
          "name": "tokenId",
          "type": "uint256"
        }
      ],
      "name": "getApproved",
      "outputs": [
        {
          "internalType": "address",
          "name": "",
          "type": "address"
        }
      ],
      "stateMutability": "view",
      "type": "function",
      "constant": true
    },
    {
      "inputs": [
        {
          "internalType": "address",
          "name": "owner",
          "type": "address"
        },
        {
          "internalType": "address",
          "name": "operator",
          "type": "address"
        }
      ],
      "name": "isApprovedForAll",
      "outputs": [
        {
          "internalType": "bool",
          "name": "",
          "type": "bool"
        }
      ],
      "stateMutability": "view",
      "type": "function",
      "constant": true
    },
    {
      "inputs": [],
      "name": "name",
      "outputs": [
        {
          "internalType": "string",
          "name": "",
          "type": "string"
        }
      ],
      "stateMutability": "view",
      "type": "function",
      "constant": true
    },
    {
      "inputs": [
        {
          "internalType": "uint256",
          "name": "",
          "type": "uint256"
        }
      ],
      "name": "original",
      "outputs": [
        {
          "internalType": "bytes",
          "name": "",
          "type": "bytes"
        }
      ],
      "stateMutability": "view",
      "type": "function",
      "constant": true
    },
    {
      "inputs": [
        {
          "internalType": "uint256",
          "name": "tokenId",
          "type": "uint256"
        }
      ],
      "name": "ownerOf",
      "outputs": [
        {
          "internalType": "address",
          "name": "",
          "type": "address"
        }
      ],
      "stateMutability": "view",
      "type": "function",
      "constant": true
    },
    {
      "inputs": [
        {
          "internalType": "address",
          "name": "from",
          "type": "address"
        },
        {
          "internalType": "address",
          "name": "to",
          "type": "address"
        },
        {
          "internalType": "uint256",
          "name": "tokenId",
          "type": "uint256"
        }
      ],
      "name": "safeTransferFrom",
      "outputs": [],
      "stateMutability": "nonpayable",
      "type": "function"
    },
    {
      "inputs": [
        {
          "internalType": "address",
          "name": "from",
          "type": "address"
        },
        {
          "internalType": "address",
          "name": "to",
          "type": "address"
        },
        {
          "internalType": "uint256",
          "name": "tokenId",
          "type": "uint256"
        },
        {
          "internalType": "bytes",
          "name": "data",
          "type": "bytes"
        }
      ],
      "name": "safeTransferFrom",
      "outputs": [],
      "stateMutability": "nonpayable",
      "type": "function"
    },
    {
      "inputs": [
        {
          "internalType": "address",
          "name": "operator",
          "type": "address"
        },
        {
          "internalType": "bool",
          "name": "approved",
          "type": "bool"
        }
      ],
      "name": "setApprovalForAll",
      "outputs": [],
      "stateMutability": "nonpayable",
      "type": "function"
    },
    {
      "inputs": [
        {
          "internalType": "bytes4",
          "name": "interfaceId",
          "type": "bytes4"
        }
      ],
      "name": "supportsInterface",
      "outputs": [
        {
          "internalType": "bool",
          "name": "",
          "type": "bool"
        }
      ],
      "stateMutability": "view",
      "type": "function",
      "constant": true
    },
    {
      "inputs": [],
      "name": "symbol",
      "outputs": [
        {
          "internalType": "string",
          "name": "",
          "type": "string"
        }
      ],
      "stateMutability": "view",
      "type": "function",
      "constant": true
    },
    {
      "inputs": [
        {
          "internalType": "uint256",
          "name": "tokenId",
          "type": "uint256"
        }
      ],
      "name": "tokenURI",
      "outputs": [
        {
          "internalType": "string",
          "name": "",
          "type": "string"
        }
      ],
      "stateMutability": "view",
      "type": "function",
      "constant": true
    },
    {
      "inputs": [
        {
          "internalType": "address",
          "name": "from",
          "type": "address"
        },
        {
          "internalType": "address",
          "name": "to",
          "type": "address"
        },
        {
          "internalType": "uint256",
          "name": "tokenId",
          "type": "uint256"
        }
      ],
      "name": "transferFrom",
      "outputs": [],
      "stateMutability": "nonpayable",
      "type": "function"
    },
    {
      "inputs": [
        {
          "internalType": "string",
          "name": "chainName_",
          "type": "string"
        },
        {
          "internalType": "address",
          "name": "gateway_",
          "type": "address"
        },
        {
          "internalType": "address",
          "name": "gasReceiver_",
          "type": "address"
        }
      ],
      "name": "init",
      "outputs": [],
      "stateMutability": "nonpayable",
      "type": "function"
    },
    {
      "inputs": [
        {
          "internalType": "address",
          "name": "operator",
          "type": "address"
        },
        {
          "internalType": "uint256",
          "name": "tokenId",
          "type": "uint256"
        },
        {
          "internalType": "string",
          "name": "destinationChain",
          "type": "string"
        },
        {
          "internalType": "address",
          "name": "destinationAddress",
          "type": "address"
        }
      ],
      "name": "sendNFT",
      "outputs": [],
      "stateMutability": "payable",
      "type": "function",
      "payable": true
    },
    {
      "inputs": [
        {
          "internalType": "address",
          "name": "to",
          "type": "address"
        },
        {
          "internalType": "uint256",
          "name": "tokenId",
          "type": "uint256"
        }
      ],
      "name": "mint",
      "outputs": [],
      "stateMutability": "nonpayable",
      "type": "function"
    }
  ],
  "bytecode": "0x60806040523480156200001157600080fd5b5060405162004ca538038062004ca5833981810160405281019062000037919062000471565b60006040518060400160405280601381526020017f4a554e4354494f4e204e4654204c696e6b6572000000000000000000000000008152506040518060400160405280600281526020017f4a430000000000000000000000000000000000000000000000000000000000008152508160009080519060200190620000bd929190620001bf565b508060019080519060200190620000d6929190620001bf565b50505080600660006101000a81548173ffffffffffffffffffffffffffffffffffffffff021916908373ffffffffffffffffffffffffffffffffffffffff1602179055505080600960006101000a81548173ffffffffffffffffffffffffffffffffffffffff021916908373ffffffffffffffffffffffffffffffffffffffff16021790555081600660006101000a81548173ffffffffffffffffffffffffffffffffffffffff021916908373ffffffffffffffffffffffffffffffffffffffff1602179055508260089080519060200190620001b5929190620001bf565b5050505062000551565b828054620001cd906200051b565b90600052602060002090601f016020900481019282620001f157600085556200023d565b82601f106200020c57805160ff19168380011785556200023d565b828001600101855582156200023d579182015b828111156200023c5782518255916020019190600101906200021f565b5b5090506200024c919062000250565b5090565b5b808211156200026b57600081600090555060010162000251565b5090565b6000604051905090565b600080fd5b600080fd5b600080fd5b600080fd5b6000601f19601f8301169050919050565b7f4e487b7100000000000000000000000000000000000000000000000000000000600052604160045260246000fd5b620002d8826200028d565b810181811067ffffffffffffffff82111715620002fa57620002f96200029e565b5b80604052505050565b60006200030f6200026f565b90506200031d8282620002cd565b919050565b600067ffffffffffffffff82111562000340576200033f6200029e565b5b6200034b826200028d565b9050602081019050919050565b60005b83811015620003785780820151818401526020810190506200035b565b8381111562000388576000848401525b50505050565b6000620003a56200039f8462000322565b62000303565b905082815260208101848484011115620003c457620003c362000288565b5b620003d184828562000358565b509392505050565b600082601f830112620003f157620003f062000283565b5b8151620004038482602086016200038e565b91505092915050565b600073ffffffffffffffffffffffffffffffffffffffff82169050919050565b600062000439826200040c565b9050919050565b6200044b816200042c565b81146200045757600080fd5b50565b6000815190506200046b8162000440565b92915050565b6000806000606084860312156200048d576200048c62000279565b5b600084015167ffffffffffffffff811115620004ae57620004ad6200027e565b5b620004bc86828701620003d9565b9350506020620004cf868287016200045a565b9250506040620004e2868287016200045a565b9150509250925092565b7f4e487b7100000000000000000000000000000000000000000000000000000000600052602260045260246000fd5b600060028204905060018216806200053457607f821691505b602082108114156200054b576200054a620004ec565b5b50919050565b61474480620005616000396000f3fe60806040526004361061011f5760003560e01c80636352211e116100a057806395d89b411161006457806395d89b41146103e6578063a22cb46514610411578063b88d4fde1461043a578063c87b56dd14610463578063e985e9c5146104a05761011f565b80636352211e146102ea57806370a0823114610327578063717eb03f1461036457806371f72fa0146103a157806393349876146103ca5761011f565b80631a98b2e0116100e75780631a98b2e01461021d57806323b872dd1461024657806340c10f191461026f57806342842e0e1461029857806349160658146102c15761011f565b806301ffc9a71461012457806306fdde0314610161578063081812fc1461018c578063095ea7b3146101c9578063116191b6146101f2575b600080fd5b34801561013057600080fd5b5061014b60048036038101906101469190612b74565b6104dd565b6040516101589190612bbc565b60405180910390f35b34801561016d57600080fd5b506101766105bf565b6040516101839190612c70565b60405180910390f35b34801561019857600080fd5b506101b360048036038101906101ae9190612cc8565b610651565b6040516101c09190612d36565b60405180910390f35b3480156101d557600080fd5b506101f060048036038101906101eb9190612d7d565b610697565b005b3480156101fe57600080fd5b506102076107af565b6040516102149190612e1c565b60405180910390f35b34801561022957600080fd5b50610244600480360381019061023f9190612f28565b6107d5565b005b34801561025257600080fd5b5061026d60048036038101906102689190613038565b6109cb565b005b34801561027b57600080fd5b5061029660048036038101906102919190612d7d565b610a2b565b005b3480156102a457600080fd5b506102bf60048036038101906102ba9190613038565b610a39565b005b3480156102cd57600080fd5b506102e860048036038101906102e3919061308b565b610a59565b005b3480156102f657600080fd5b50610311600480360381019061030c9190612cc8565b610c00565b60405161031e9190612d36565b60405180910390f35b34801561033357600080fd5b5061034e60048036038101906103499190613154565b610cb2565b60405161035b9190613190565b60405180910390f35b34801561037057600080fd5b5061038b60048036038101906103869190612cc8565b610d6a565b6040516103989190613200565b60405180910390f35b3480156103ad57600080fd5b506103c860048036038101906103c39190613352565b610e0a565b005b6103e460048036038101906103df91906133c1565b610f8c565b005b3480156103f257600080fd5b506103fb6110d6565b6040516104089190612c70565b60405180910390f35b34801561041d57600080fd5b5061043860048036038101906104339190613470565b611168565b005b34801561044657600080fd5b50610461600480360381019061045c9190613551565b61117e565b005b34801561046f57600080fd5b5061048a60048036038101906104859190612cc8565b6111e0565b6040516104979190612c70565b60405180910390f35b3480156104ac57600080fd5b506104c760048036038101906104c291906135d4565b611248565b6040516104d49190612bbc565b60405180910390f35b60007f80ac58cd000000000000000000000000000000000000000000000000000000007bffffffffffffffffffffffffffffffffffffffffffffffffffffffff1916827bffffffffffffffffffffffffffffffffffffffffffffffffffffffff191614806105a857507f5b5e139f000000000000000000000000000000000000000000000000000000007bffffffffffffffffffffffffffffffffffffffffffffffffffffffff1916827bffffffffffffffffffffffffffffffffffffffffffffffffffffffff1916145b806105b857506105b7826112dc565b5b9050919050565b6060600080546105ce90613643565b80601f01602080910402602001604051908101604052809291908181526020018280546105fa90613643565b80156106475780601f1061061c57610100808354040283529160200191610647565b820191906000526020600020905b81548152906001019060200180831161062a57829003601f168201915b5050505050905090565b600061065c82611346565b6004600083815260200190815260200160002060009054906101000a900473ffffffffffffffffffffffffffffffffffffffff169050919050565b60006106a282610c00565b90508073ffffffffffffffffffffffffffffffffffffffff168373ffffffffffffffffffffffffffffffffffffffff161415610713576040517f08c379a000000000000000000000000000000000000000000000000000000000815260040161070a906136e7565b60405180910390fd5b8073ffffffffffffffffffffffffffffffffffffffff16610732611391565b73ffffffffffffffffffffffffffffffffffffffff16148061076157506107608161075b611391565b611248565b5b6107a0576040517f08c379a000000000000000000000000000000000000000000000000000000000815260040161079790613779565b60405180910390fd5b6107aa8383611399565b505050565b600660009054906101000a900473ffffffffffffffffffffffffffffffffffffffff1681565b600085856040516107e79291906137c9565b60405180910390209050600660009054906101000a900473ffffffffffffffffffffffffffffffffffffffff1673ffffffffffffffffffffffffffffffffffffffff16631876eed98c8c8c8c8c878b8b8b6040518a63ffffffff1660e01b815260040161085c9998979695949392919061381e565b602060405180830381600087803b15801561087657600080fd5b505af115801561088a573d6000803e3d6000fd5b505050506040513d601f19601f820116820180604052508101906108ae91906138af565b6108e4576040517f500c44b400000000000000000000000000000000000000000000000000000000815260040160405180910390fd5b6109be8a8a8080601f016020809104026020016040519081016040528093929190818152602001838380828437600081840152601f19601f8201169050808301925050505050505089898080601f016020809104026020016040519081016040528093929190818152602001838380828437600081840152601f19601f82011690508083019250505050505050888888888080601f016020809104026020016040519081016040528093929190818152602001838380828437600081840152601f19601f8201169050808301925050505050505087611452565b5050505050505050505050565b6109dc6109d6611391565b8261145a565b610a1b576040517f08c379a0000000000000000000000000000000000000000000000000000000008152600401610a129061394e565b60405180910390fd5b610a268383836114ef565b505050565b610a358282611756565b5050565b610a548383836040518060200160405280600081525061117e565b505050565b60008282604051610a6b9291906137c9565b60405180910390209050600660009054906101000a900473ffffffffffffffffffffffffffffffffffffffff1673ffffffffffffffffffffffffffffffffffffffff16635f6970c38989898989876040518763ffffffff1660e01b8152600401610ada9695949392919061396e565b602060405180830381600087803b158015610af457600080fd5b505af1158015610b08573d6000803e3d6000fd5b505050506040513d601f19601f82011682018060405250810190610b2c91906138af565b610b62576040517f500c44b400000000000000000000000000000000000000000000000000000000815260040160405180910390fd5b610bf687878080601f016020809104026020016040519081016040528093929190818152602001838380828437600081840152601f19601f8201169050808301925050505050505086868080601f016020809104026020016040519081016040528093929190818152602001838380828437600081840152601f19601f820116905080830192505050505050508585611930565b5050505050505050565b6000806002600084815260200190815260200160002060009054906101000a900473ffffffffffffffffffffffffffffffffffffffff169050600073ffffffffffffffffffffffffffffffffffffffff168173ffffffffffffffffffffffffffffffffffffffff161415610ca9576040517f08c379a0000000000000000000000000000000000000000000000000000000008152600401610ca090613a11565b60405180910390fd5b80915050919050565b60008073ffffffffffffffffffffffffffffffffffffffff168273ffffffffffffffffffffffffffffffffffffffff161415610d23576040517f08c379a0000000000000000000000000000000000000000000000000000000008152600401610d1a90613aa3565b60405180910390fd5b600360008373ffffffffffffffffffffffffffffffffffffffff1673ffffffffffffffffffffffffffffffffffffffff168152602001908152602001600020549050919050565b60076020528060005260406000206000915090508054610d8990613643565b80601f0160208091040260200160405190810160405280929190818152602001828054610db590613643565b8015610e025780601f10610dd757610100808354040283529160200191610e02565b820191906000526020600020905b815481529060010190602001808311610de557829003601f168201915b505050505081565b600073ffffffffffffffffffffffffffffffffffffffff16600660009054906101000a900473ffffffffffffffffffffffffffffffffffffffff1673ffffffffffffffffffffffffffffffffffffffff16141580610eb75750600073ffffffffffffffffffffffffffffffffffffffff16600960009054906101000a900473ffffffffffffffffffffffffffffffffffffffff1673ffffffffffffffffffffffffffffffffffffffff1614155b15610eee576040517f0dc149f000000000000000000000000000000000000000000000000000000000815260040160405180910390fd5b80600960006101000a81548173ffffffffffffffffffffffffffffffffffffffff021916908373ffffffffffffffffffffffffffffffffffffffff16021790555081600660006101000a81548173ffffffffffffffffffffffffffffffffffffffff021916908373ffffffffffffffffffffffffffffffffffffffff1602179055508260089080519060200190610f869291906129df565b50505050565b3073ffffffffffffffffffffffffffffffffffffffff168473ffffffffffffffffffffffffffffffffffffffff16141561104d57610fc8611391565b73ffffffffffffffffffffffffffffffffffffffff16610fe784610c00565b73ffffffffffffffffffffffffffffffffffffffff161461103d576040517f08c379a000000000000000000000000000000000000000000000000000000000815260040161103490613b0f565b60405180910390fd5b611048838383611ad2565b6110d0565b8373ffffffffffffffffffffffffffffffffffffffff166323b872dd611071611391565b30866040518463ffffffff1660e01b815260040161109193929190613b2f565b600060405180830381600087803b1580156110ab57600080fd5b505af11580156110bf573d6000803e3d6000fd5b505050506110cf84848484611d13565b5b50505050565b6060600180546110e590613643565b80601f016020809104026020016040519081016040528092919081815260200182805461111190613643565b801561115e5780601f106111335761010080835404028352916020019161115e565b820191906000526020600020905b81548152906001019060200180831161114157829003601f168201915b5050505050905090565b61117a611173611391565b8383611e90565b5050565b61118f611189611391565b8361145a565b6111ce576040517f08c379a00000000000000000000000000000000000000000000000000000000081526004016111c59061394e565b60405180910390fd5b6111da84848484611ffd565b50505050565b60606111eb82611346565b60006111f5612059565b905060008151116112155760405180602001604052806000815250611240565b8061121f84612070565b604051602001611230929190613ba2565b6040516020818303038152906040525b915050919050565b6000600560008473ffffffffffffffffffffffffffffffffffffffff1673ffffffffffffffffffffffffffffffffffffffff16815260200190815260200160002060008373ffffffffffffffffffffffffffffffffffffffff1673ffffffffffffffffffffffffffffffffffffffff16815260200190815260200160002060009054906101000a900460ff16905092915050565b60007f01ffc9a7000000000000000000000000000000000000000000000000000000007bffffffffffffffffffffffffffffffffffffffffffffffffffffffff1916827bffffffffffffffffffffffffffffffffffffffffffffffffffffffff1916149050919050565b61134f816121d1565b61138e576040517f08c379a000000000000000000000000000000000000000000000000000000000815260040161138590613a11565b60405180910390fd5b50565b600033905090565b816004600083815260200190815260200160002060006101000a81548173ffffffffffffffffffffffffffffffffffffffff021916908373ffffffffffffffffffffffffffffffffffffffff160217905550808273ffffffffffffffffffffffffffffffffffffffff1661140c83610c00565b73ffffffffffffffffffffffffffffffffffffffff167f8c5be1e5ebec7d5bd14f71427d1e84f3dd0314c0f7b2291e5b200ac8c7c3b92560405160405180910390a45050565b505050505050565b60008061146683610c00565b90508073ffffffffffffffffffffffffffffffffffffffff168473ffffffffffffffffffffffffffffffffffffffff1614806114a857506114a78185611248565b5b806114e657508373ffffffffffffffffffffffffffffffffffffffff166114ce84610651565b73ffffffffffffffffffffffffffffffffffffffff16145b91505092915050565b8273ffffffffffffffffffffffffffffffffffffffff1661150f82610c00565b73ffffffffffffffffffffffffffffffffffffffff1614611565576040517f08c379a000000000000000000000000000000000000000000000000000000000815260040161155c90613c38565b60405180910390fd5b600073ffffffffffffffffffffffffffffffffffffffff168273ffffffffffffffffffffffffffffffffffffffff1614156115d5576040517f08c379a00000000000000000000000000000000000000000000000000000000081526004016115cc90613cca565b60405180910390fd5b6115e083838361223d565b6115eb600082611399565b6001600360008573ffffffffffffffffffffffffffffffffffffffff1673ffffffffffffffffffffffffffffffffffffffff168152602001908152602001600020600082825461163b9190613d19565b925050819055506001600360008473ffffffffffffffffffffffffffffffffffffffff1673ffffffffffffffffffffffffffffffffffffffff16815260200190815260200160002060008282546116929190613d4d565b92505081905550816002600083815260200190815260200160002060006101000a81548173ffffffffffffffffffffffffffffffffffffffff021916908373ffffffffffffffffffffffffffffffffffffffff160217905550808273ffffffffffffffffffffffffffffffffffffffff168473ffffffffffffffffffffffffffffffffffffffff167fddf252ad1be2c89b69c2b068fc378daa952ba7f163c4a11628f55a4df523b3ef60405160405180910390a4611751838383612242565b505050565b600073ffffffffffffffffffffffffffffffffffffffff168273ffffffffffffffffffffffffffffffffffffffff1614156117c6576040517f08c379a00000000000000000000000000000000000000000000000000000000081526004016117bd90613def565b60405180910390fd5b6117cf816121d1565b1561180f576040517f08c379a000000000000000000000000000000000000000000000000000000000815260040161180690613e5b565b60405180910390fd5b61181b6000838361223d565b6001600360008473ffffffffffffffffffffffffffffffffffffffff1673ffffffffffffffffffffffffffffffffffffffff168152602001908152602001600020600082825461186b9190613d4d565b92505081905550816002600083815260200190815260200160002060006101000a81548173ffffffffffffffffffffffffffffffffffffffff021916908373ffffffffffffffffffffffffffffffffffffffff160217905550808273ffffffffffffffffffffffffffffffffffffffff16600073ffffffffffffffffffffffffffffffffffffffff167fddf252ad1be2c89b69c2b068fc378daa952ba7f163c4a11628f55a4df523b3ef60405160405180910390a461192c60008383612242565b5050565b3073ffffffffffffffffffffffffffffffffffffffff1661195084612247565b73ffffffffffffffffffffffffffffffffffffffff16146119a6576040517f08c379a000000000000000000000000000000000000000000000000000000000815260040161199d90613ec7565b60405180910390fd5b60008060008085858101906119bb9190613f25565b935093509350935060086040516119d2919061403c565b604051809103902084805190602001201415611a5c578273ffffffffffffffffffffffffffffffffffffffff166323b872dd3083856040518463ffffffff1660e01b8152600401611a2593929190613b2f565b600060405180830381600087803b158015611a3f57600080fd5b505af1158015611a53573d6000803e3d6000fd5b50505050611ac8565b6000848484604051602001611a7393929190614053565b60405160208183030381529060405290506000818051906020012060001c905081600760008381526020019081526020016000209080519060200190611aba929190612a65565b50611ac58382612372565b50505b5050505050505050565b611adb83612390565b6000806000600760008781526020019081526020016000208054611afe90613643565b80601f0160208091040260200160405190810160405280929190818152602001828054611b2a90613643565b8015611b775780601f10611b4c57610100808354040283529160200191611b77565b820191906000526020600020905b815481529060010190602001808311611b5a57829003601f168201915b5050505050806020019051810190611b8f919061412b565b925092509250600083838387604051602001611bae949392919061419a565b60405160208183030381529060405290506000611be03073ffffffffffffffffffffffffffffffffffffffff166124ad565b9050600960009054906101000a900473ffffffffffffffffffffffffffffffffffffffff1673ffffffffffffffffffffffffffffffffffffffff16630c93e3bb34308a8587336040518763ffffffff1660e01b8152600401611c469594939291906141e6565b6000604051808303818588803b158015611c5f57600080fd5b505af1158015611c73573d6000803e3d6000fd5b5050505050600660009054906101000a900473ffffffffffffffffffffffffffffffffffffffff1673ffffffffffffffffffffffffffffffffffffffff16631c92115f8883856040518463ffffffff1660e01b8152600401611cd79392919061424e565b600060405180830381600087803b158015611cf157600080fd5b505af1158015611d05573d6000803e3d6000fd5b505050505050505050505050565b60006008858584604051602001611d2d949392919061432f565b60405160208183030381529060405290506000611d5f3073ffffffffffffffffffffffffffffffffffffffff166124ad565b9050600960009054906101000a900473ffffffffffffffffffffffffffffffffffffffff1673ffffffffffffffffffffffffffffffffffffffff16630c93e3bb3430878587336040518763ffffffff1660e01b8152600401611dc59594939291906141e6565b6000604051808303818588803b158015611dde57600080fd5b505af1158015611df2573d6000803e3d6000fd5b5050505050600660009054906101000a900473ffffffffffffffffffffffffffffffffffffffff1673ffffffffffffffffffffffffffffffffffffffff16631c92115f8583856040518463ffffffff1660e01b8152600401611e569392919061424e565b600060405180830381600087803b158015611e7057600080fd5b505af1158015611e84573d6000803e3d6000fd5b50505050505050505050565b8173ffffffffffffffffffffffffffffffffffffffff168373ffffffffffffffffffffffffffffffffffffffff161415611eff576040517f08c379a0000000000000000000000000000000000000000000000000000000008152600401611ef6906143c7565b60405180910390fd5b80600560008573ffffffffffffffffffffffffffffffffffffffff1673ffffffffffffffffffffffffffffffffffffffff16815260200190815260200160002060008473ffffffffffffffffffffffffffffffffffffffff1673ffffffffffffffffffffffffffffffffffffffff16815260200190815260200160002060006101000a81548160ff0219169083151502179055508173ffffffffffffffffffffffffffffffffffffffff168373ffffffffffffffffffffffffffffffffffffffff167f17307eab39ab6107e8899845ad3d59bd9653f200f220920489ca2b5937696c3183604051611ff09190612bbc565b60405180910390a3505050565b6120088484846114ef565b612014848484846127ca565b612053576040517f08c379a000000000000000000000000000000000000000000000000000000000815260040161204a90614459565b60405180910390fd5b50505050565b606060405180602001604052806000815250905090565b606060008214156120b8576040518060400160405280600181526020017f300000000000000000000000000000000000000000000000000000000000000081525090506121cc565b600082905060005b600082146120ea5780806120d390614479565b915050600a826120e391906144f1565b91506120c0565b60008167ffffffffffffffff81111561210657612105613227565b5b6040519080825280601f01601f1916602001820160405280156121385781602001600182028036833780820191505090505b5090505b600085146121c5576001826121519190613d19565b9150600a856121609190614522565b603061216c9190613d4d565b60f81b81838151811061218257612181614553565b5b60200101907effffffffffffffffffffffffffffffffffffffffffffffffffffffffffffff1916908160001a905350600a856121be91906144f1565b945061213c565b8093505050505b919050565b60008073ffffffffffffffffffffffffffffffffffffffff166002600084815260200190815260200160002060009054906101000a900473ffffffffffffffffffffffffffffffffffffffff1673ffffffffffffffffffffffffffffffffffffffff1614159050919050565b505050565b505050565b600080829050602a81511461226057600091505061236d565b60008080600290505b602a8110156123655783818151811061228557612284614553565b5b602001015160f81c60f81b60f81c915060618260ff16101580156122ad575060668260ff1611155b156122c6576057826122bf919061458f565b9150612337565b60418260ff16101580156122de575060468260ff1611155b156122f7576037826122f0919061458f565b9150612336565b60308260ff161015801561230f575060398260ff1611155b1561232857603082612321919061458f565b9150612335565b600094505050505061236d565b5b5b60028160296123469190613d19565b901b8260ff16901b83179250808061235d90614479565b915050612269565b508193505050505b919050565b61238c828260405180602001604052806000815250612961565b5050565b600061239b82610c00565b90506123a98160008461223d565b6123b4600083611399565b6001600360008373ffffffffffffffffffffffffffffffffffffffff1673ffffffffffffffffffffffffffffffffffffffff16815260200190815260200160002060008282546124049190613d19565b925050819055506002600083815260200190815260200160002060006101000a81549073ffffffffffffffffffffffffffffffffffffffff021916905581600073ffffffffffffffffffffffffffffffffffffffff168273ffffffffffffffffffffffffffffffffffffffff167fddf252ad1be2c89b69c2b068fc378daa952ba7f163c4a11628f55a4df523b3ef60405160405180910390a46124a981600084612242565b5050565b60606000826040516020016124c2919061460b565b604051602081830303815290604052905060006040518060400160405280601081526020017f3031323334353637383961626364656600000000000000000000000000000000815250905060006002835161251d9190614626565b60026125299190613d4d565b67ffffffffffffffff81111561254257612541613227565b5b6040519080825280601f01601f1916602001820160405280156125745781602001600182028036833780820191505090505b5090507f3000000000000000000000000000000000000000000000000000000000000000816000815181106125ac576125ab614553565b5b60200101907effffffffffffffffffffffffffffffffffffffffffffffffffffffffffffff1916908160001a9053507f7800000000000000000000000000000000000000000000000000000000000000816001815181106126105761260f614553565b5b60200101907effffffffffffffffffffffffffffffffffffffffffffffffffffffffffffff1916908160001a90535060005b83518110156127be5782600485838151811061266157612660614553565b5b602001015160f81c60f81b7effffffffffffffffffffffffffffffffffffffffffffffffffffffffffffff1916901c60f81c60ff16815181106126a7576126a6614553565b5b602001015160f81c60f81b826002836126c09190614626565b60026126cc9190613d4d565b815181106126dd576126dc614553565b5b60200101907effffffffffffffffffffffffffffffffffffffffffffffffffffffffffffff1916908160001a90535082600f60f81b85838151811061272557612724614553565b5b602001015160f81c60f81b1660f81c60ff168151811061274857612747614553565b5b602001015160f81c60f81b826002836127619190614626565b600361276d9190613d4d565b8151811061277e5761277d614553565b5b60200101907effffffffffffffffffffffffffffffffffffffffffffffffffffffffffffff1916908160001a905350806127b790614479565b9050612642565b50809350505050919050565b60006127eb8473ffffffffffffffffffffffffffffffffffffffff166129bc565b15612954578373ffffffffffffffffffffffffffffffffffffffff1663150b7a02612814611391565b8786866040518563ffffffff1660e01b81526004016128369493929190614680565b602060405180830381600087803b15801561285057600080fd5b505af192505050801561288157506040513d601f19601f8201168201806040525081019061287e91906146e1565b60015b612904573d80600081146128b1576040519150601f19603f3d011682016040523d82523d6000602084013e6128b6565b606091505b506000815114156128fc576040517f08c379a00000000000000000000000000000000000000000000000000000000081526004016128f390614459565b60405180910390fd5b805181602001fd5b63150b7a0260e01b7bffffffffffffffffffffffffffffffffffffffffffffffffffffffff1916817bffffffffffffffffffffffffffffffffffffffffffffffffffffffff191614915050612959565b600190505b949350505050565b61296b8383611756565b61297860008484846127ca565b6129b7576040517f08c379a00000000000000000000000000000000000000000000000000000000081526004016129ae90614459565b60405180910390fd5b505050565b6000808273ffffffffffffffffffffffffffffffffffffffff163b119050919050565b8280546129eb90613643565b90600052602060002090601f016020900481019282612a0d5760008555612a54565b82601f10612a2657805160ff1916838001178555612a54565b82800160010185558215612a54579182015b82811115612a53578251825591602001919060010190612a38565b5b509050612a619190612aeb565b5090565b828054612a7190613643565b90600052602060002090601f016020900481019282612a935760008555612ada565b82601f10612aac57805160ff1916838001178555612ada565b82800160010185558215612ada579182015b82811115612ad9578251825591602001919060010190612abe565b5b509050612ae79190612aeb565b5090565b5b80821115612b04576000816000905550600101612aec565b5090565b6000604051905090565b600080fd5b600080fd5b60007fffffffff0000000000000000000000000000000000000000000000000000000082169050919050565b612b5181612b1c565b8114612b5c57600080fd5b50565b600081359050612b6e81612b48565b92915050565b600060208284031215612b8a57612b89612b12565b5b6000612b9884828501612b5f565b91505092915050565b60008115159050919050565b612bb681612ba1565b82525050565b6000602082019050612bd16000830184612bad565b92915050565b600081519050919050565b600082825260208201905092915050565b60005b83811015612c11578082015181840152602081019050612bf6565b83811115612c20576000848401525b50505050565b6000601f19601f8301169050919050565b6000612c4282612bd7565b612c4c8185612be2565b9350612c5c818560208601612bf3565b612c6581612c26565b840191505092915050565b60006020820190508181036000830152612c8a8184612c37565b905092915050565b6000819050919050565b612ca581612c92565b8114612cb057600080fd5b50565b600081359050612cc281612c9c565b92915050565b600060208284031215612cde57612cdd612b12565b5b6000612cec84828501612cb3565b91505092915050565b600073ffffffffffffffffffffffffffffffffffffffff82169050919050565b6000612d2082612cf5565b9050919050565b612d3081612d15565b82525050565b6000602082019050612d4b6000830184612d27565b92915050565b612d5a81612d15565b8114612d6557600080fd5b50565b600081359050612d7781612d51565b92915050565b60008060408385031215612d9457612d93612b12565b5b6000612da285828601612d68565b9250506020612db385828601612cb3565b9150509250929050565b6000819050919050565b6000612de2612ddd612dd884612cf5565b612dbd565b612cf5565b9050919050565b6000612df482612dc7565b9050919050565b6000612e0682612de9565b9050919050565b612e1681612dfb565b82525050565b6000602082019050612e316000830184612e0d565b92915050565b6000819050919050565b612e4a81612e37565b8114612e5557600080fd5b50565b600081359050612e6781612e41565b92915050565b600080fd5b600080fd5b600080fd5b60008083601f840112612e9257612e91612e6d565b5b8235905067ffffffffffffffff811115612eaf57612eae612e72565b5b602083019150836001820283011115612ecb57612eca612e77565b5b9250929050565b60008083601f840112612ee857612ee7612e6d565b5b8235905067ffffffffffffffff811115612f0557612f04612e72565b5b602083019150836001820283011115612f2157612f20612e77565b5b9250929050565b60008060008060008060008060008060c08b8d031215612f4b57612f4a612b12565b5b6000612f598d828e01612e58565b9a505060208b013567ffffffffffffffff811115612f7a57612f79612b17565b5b612f868d828e01612e7c565b995099505060408b013567ffffffffffffffff811115612fa957612fa8612b17565b5b612fb58d828e01612e7c565b975097505060608b013567ffffffffffffffff811115612fd857612fd7612b17565b5b612fe48d828e01612ed2565b955095505060808b013567ffffffffffffffff81111561300757613006612b17565b5b6130138d828e01612e7c565b935093505060a06130268d828e01612cb3565b9150509295989b9194979a5092959850565b60008060006060848603121561305157613050612b12565b5b600061305f86828701612d68565b935050602061307086828701612d68565b925050604061308186828701612cb3565b9150509250925092565b60008060008060008060006080888a0312156130aa576130a9612b12565b5b60006130b88a828b01612e58565b975050602088013567ffffffffffffffff8111156130d9576130d8612b17565b5b6130e58a828b01612e7c565b9650965050604088013567ffffffffffffffff81111561310857613107612b17565b5b6131148a828b01612e7c565b9450945050606088013567ffffffffffffffff81111561313757613136612b17565b5b6131438a828b01612ed2565b925092505092959891949750929550565b60006020828403121561316a57613169612b12565b5b600061317884828501612d68565b91505092915050565b61318a81612c92565b82525050565b60006020820190506131a56000830184613181565b92915050565b600081519050919050565b600082825260208201905092915050565b60006131d2826131ab565b6131dc81856131b6565b93506131ec818560208601612bf3565b6131f581612c26565b840191505092915050565b6000602082019050818103600083015261321a81846131c7565b905092915050565b600080fd5b7f4e487b7100000000000000000000000000000000000000000000000000000000600052604160045260246000fd5b61325f82612c26565b810181811067ffffffffffffffff8211171561327e5761327d613227565b5b80604052505050565b6000613291612b08565b905061329d8282613256565b919050565b600067ffffffffffffffff8211156132bd576132bc613227565b5b6132c682612c26565b9050602081019050919050565b82818337600083830152505050565b60006132f56132f0846132a2565b613287565b90508281526020810184848401111561331157613310613222565b5b61331c8482856132d3565b509392505050565b600082601f83011261333957613338612e6d565b5b81356133498482602086016132e2565b91505092915050565b60008060006060848603121561336b5761336a612b12565b5b600084013567ffffffffffffffff81111561338957613388612b17565b5b61339586828701613324565b93505060206133a686828701612d68565b92505060406133b786828701612d68565b9150509250925092565b600080600080608085870312156133db576133da612b12565b5b60006133e987828801612d68565b94505060206133fa87828801612cb3565b935050604085013567ffffffffffffffff81111561341b5761341a612b17565b5b61342787828801613324565b925050606061343887828801612d68565b91505092959194509250565b61344d81612ba1565b811461345857600080fd5b50565b60008135905061346a81613444565b92915050565b6000806040838503121561348757613486612b12565b5b600061349585828601612d68565b92505060206134a68582860161345b565b9150509250929050565b600067ffffffffffffffff8211156134cb576134ca613227565b5b6134d482612c26565b9050602081019050919050565b60006134f46134ef846134b0565b613287565b9050828152602081018484840111156135105761350f613222565b5b61351b8482856132d3565b509392505050565b600082601f83011261353857613537612e6d565b5b81356135488482602086016134e1565b91505092915050565b6000806000806080858703121561356b5761356a612b12565b5b600061357987828801612d68565b945050602061358a87828801612d68565b935050604061359b87828801612cb3565b925050606085013567ffffffffffffffff8111156135bc576135bb612b17565b5b6135c887828801613523565b91505092959194509250565b600080604083850312156135eb576135ea612b12565b5b60006135f985828601612d68565b925050602061360a85828601612d68565b9150509250929050565b7f4e487b7100000000000000000000000000000000000000000000000000000000600052602260045260246000fd5b6000600282049050600182168061365b57607f821691505b6020821081141561366f5761366e613614565b5b50919050565b7f4552433732313a20617070726f76616c20746f2063757272656e74206f776e6560008201527f7200000000000000000000000000000000000000000000000000000000000000602082015250565b60006136d1602183612be2565b91506136dc82613675565b604082019050919050565b60006020820190508181036000830152613700816136c4565b9050919050565b7f4552433732313a20617070726f76652063616c6c6572206973206e6f7420746f60008201527f6b656e206f776e6572206e6f7220617070726f76656420666f7220616c6c0000602082015250565b6000613763603e83612be2565b915061376e82613707565b604082019050919050565b6000602082019050818103600083015261379281613756565b9050919050565b600081905092915050565b60006137b08385613799565b93506137bd8385846132d3565b82840190509392505050565b60006137d68284866137a4565b91508190509392505050565b6137eb81612e37565b82525050565b60006137fd8385612be2565b935061380a8385846132d3565b61381383612c26565b840190509392505050565b600060c082019050613833600083018c6137e2565b8181036020830152613846818a8c6137f1565b9050818103604083015261385b81888a6137f1565b905061386a60608301876137e2565b818103608083015261387d8185876137f1565b905061388c60a0830184613181565b9a9950505050505050505050565b6000815190506138a981613444565b92915050565b6000602082840312156138c5576138c4612b12565b5b60006138d38482850161389a565b91505092915050565b7f4552433732313a2063616c6c6572206973206e6f7420746f6b656e206f776e6560008201527f72206e6f7220617070726f766564000000000000000000000000000000000000602082015250565b6000613938602e83612be2565b9150613943826138dc565b604082019050919050565b600060208201905081810360008301526139678161392b565b9050919050565b600060808201905061398360008301896137e2565b81810360208301526139968187896137f1565b905081810360408301526139ab8185876137f1565b90506139ba60608301846137e2565b979650505050505050565b7f4552433732313a20696e76616c696420746f6b656e2049440000000000000000600082015250565b60006139fb601883612be2565b9150613a06826139c5565b602082019050919050565b60006020820190508181036000830152613a2a816139ee565b9050919050565b7f4552433732313a2061646472657373207a65726f206973206e6f74206120766160008201527f6c6964206f776e65720000000000000000000000000000000000000000000000602082015250565b6000613a8d602983612be2565b9150613a9882613a31565b604082019050919050565b60006020820190508181036000830152613abc81613a80565b9050919050565b7f4e4f545f594f55525f544f4b454e000000000000000000000000000000000000600082015250565b6000613af9600e83612be2565b9150613b0482613ac3565b602082019050919050565b60006020820190508181036000830152613b2881613aec565b9050919050565b6000606082019050613b446000830186612d27565b613b516020830185612d27565b613b5e6040830184613181565b949350505050565b600081905092915050565b6000613b7c82612bd7565b613b868185613b66565b9350613b96818560208601612bf3565b80840191505092915050565b6000613bae8285613b71565b9150613bba8284613b71565b91508190509392505050565b7f4552433732313a207472616e736665722066726f6d20696e636f72726563742060008201527f6f776e6572000000000000000000000000000000000000000000000000000000602082015250565b6000613c22602583612be2565b9150613c2d82613bc6565b604082019050919050565b60006020820190508181036000830152613c5181613c15565b9050919050565b7f4552433732313a207472616e7366657220746f20746865207a65726f2061646460008201527f7265737300000000000000000000000000000000000000000000000000000000602082015250565b6000613cb4602483612be2565b9150613cbf82613c58565b604082019050919050565b60006020820190508181036000830152613ce381613ca7565b9050919050565b7f4e487b7100000000000000000000000000000000000000000000000000000000600052601160045260246000fd5b6000613d2482612c92565b9150613d2f83612c92565b925082821015613d4257613d41613cea565b5b828203905092915050565b6000613d5882612c92565b9150613d6383612c92565b9250827fffffffffffffffffffffffffffffffffffffffffffffffffffffffffffffffff03821115613d9857613d97613cea565b5b828201905092915050565b7f4552433732313a206d696e7420746f20746865207a65726f2061646472657373600082015250565b6000613dd9602083612be2565b9150613de482613da3565b602082019050919050565b60006020820190508181036000830152613e0881613dcc565b9050919050565b7f4552433732313a20746f6b656e20616c7265616479206d696e74656400000000600082015250565b6000613e45601c83612be2565b9150613e5082613e0f565b602082019050919050565b60006020820190508181036000830152613e7481613e38565b9050919050565b7f4e4f545f415f4c494e4b45520000000000000000000000000000000000000000600082015250565b6000613eb1600c83612be2565b9150613ebc82613e7b565b602082019050919050565b60006020820190508181036000830152613ee081613ea4565b9050919050565b6000613ef282612cf5565b9050919050565b613f0281613ee7565b8114613f0d57600080fd5b50565b600081359050613f1f81613ef9565b92915050565b60008060008060808587031215613f3f57613f3e612b12565b5b600085013567ffffffffffffffff811115613f5d57613f5c612b17565b5b613f6987828801613324565b9450506020613f7a87828801613f10565b9350506040613f8b87828801612cb3565b9250506060613f9c87828801613f10565b91505092959194509250565b60008190508160005260206000209050919050565b60008154613fca81613643565b613fd48186613799565b94506001821660008114613fef576001811461400057614033565b60ff19831686528186019350614033565b61400985613fa8565b60005b8381101561402b5781548189015260018201915060208101905061400c565b838801955050505b50505092915050565b60006140488284613fbd565b915081905092915050565b6000606082019050818103600083015261406d8186612c37565b905061407c6020830185612d27565b6140896040830184613181565b949350505050565b60006140a461409f846132a2565b613287565b9050828152602081018484840111156140c0576140bf613222565b5b6140cb848285612bf3565b509392505050565b600082601f8301126140e8576140e7612e6d565b5b81516140f8848260208601614091565b91505092915050565b60008151905061411081613ef9565b92915050565b60008151905061412581612c9c565b92915050565b60008060006060848603121561414457614143612b12565b5b600084015167ffffffffffffffff81111561416257614161612b17565b5b61416e868287016140d3565b935050602061417f86828701614101565b925050604061419086828701614116565b9150509250925092565b600060808201905081810360008301526141b48187612c37565b90506141c36020830186612d27565b6141d06040830185613181565b6141dd6060830184612d27565b95945050505050565b600060a0820190506141fb6000830188612d27565b818103602083015261420d8187612c37565b905081810360408301526142218186612c37565b9050818103606083015261423581856131c7565b90506142446080830184612d27565b9695505050505050565b600060608201905081810360008301526142688186612c37565b9050818103602083015261427c8185612c37565b9050818103604083015261429081846131c7565b9050949350505050565b60008190508160005260206000209050919050565b600081546142bc81613643565b6142c68186612be2565b945060018216600081146142e157600181146142f357614326565b60ff1983168652602086019350614326565b6142fc8561429a565b60005b8381101561431e578154818901526001820191506020810190506142ff565b808801955050505b50505092915050565b6000608082019050818103600083015261434981876142af565b90506143586020830186612d27565b6143656040830185613181565b6143726060830184612d27565b95945050505050565b7f4552433732313a20617070726f766520746f2063616c6c657200000000000000600082015250565b60006143b1601983612be2565b91506143bc8261437b565b602082019050919050565b600060208201905081810360008301526143e0816143a4565b9050919050565b7f4552433732313a207472616e7366657220746f206e6f6e20455243373231526560008201527f63656976657220696d706c656d656e7465720000000000000000000000000000602082015250565b6000614443603283612be2565b915061444e826143e7565b604082019050919050565b6000602082019050818103600083015261447281614436565b9050919050565b600061448482612c92565b91507fffffffffffffffffffffffffffffffffffffffffffffffffffffffffffffffff8214156144b7576144b6613cea565b5b600182019050919050565b7f4e487b7100000000000000000000000000000000000000000000000000000000600052601260045260246000fd5b60006144fc82612c92565b915061450783612c92565b925082614517576145166144c2565b5b828204905092915050565b600061452d82612c92565b915061453883612c92565b925082614548576145476144c2565b5b828206905092915050565b7f4e487b7100000000000000000000000000000000000000000000000000000000600052603260045260246000fd5b600060ff82169050919050565b600061459a82614582565b91506145a583614582565b9250828210156145b8576145b7613cea565b5b828203905092915050565b60008160601b9050919050565b60006145db826145c3565b9050919050565b60006145ed826145d0565b9050919050565b61460561460082612d15565b6145e2565b82525050565b600061461782846145f4565b60148201915081905092915050565b600061463182612c92565b915061463c83612c92565b9250817fffffffffffffffffffffffffffffffffffffffffffffffffffffffffffffffff048311821515161561467557614674613cea565b5b828202905092915050565b60006080820190506146956000830187612d27565b6146a26020830186612d27565b6146af6040830185613181565b81810360608301526146c181846131c7565b905095945050505050565b6000815190506146db81612b48565b92915050565b6000602082840312156146f7576146f6612b12565b5b6000614705848285016146cc565b9150509291505056fea26469706673582212209033c12798160f99d90547981b1f25f4c6ddcc034bebf69321c0821f7962617264736f6c63430008090033",
  "immutableReferences": {},
  "source": "// SPDX-License-Identifier: MIT\n\npragma solidity 0.8.9;\n\nimport '../node_modules/@openzeppelin/contracts/token/ERC721/ERC721.sol';\nimport { IAxelarExecutable } from '../node_modules/@axelar-network/axelar-cgp-solidity/contracts/interfaces/IAxelarExecutable.sol';\nimport { StringToAddress, AddressToString } from './StringAddressUtils.sol';\nimport { IERC20 } from '../node_modules/@axelar-network/axelar-cgp-solidity/contracts/interfaces/IERC20.sol';\nimport { IAxelarGateway } from '../node_modules/@axelar-network/axelar-cgp-solidity/contracts/interfaces/IAxelarGateway.sol';\n\ninterface IAxelarGasReceiver {\n    error NotOwner();\n    error TransferFailed();\n    error NothingReceived();\n    error InvalidCodeHash();\n    error SetupFailed();\n    error NotProxy();\n\n    event Upgraded(address indexed newImplementation);\n    event OwnershipTransferred(address indexed newOwner);\n\n    event GasPaidForContractCall(\n        address indexed sourceAddress,\n        string destinationChain,\n        string destinationAddress,\n        bytes32 indexed payloadHash,\n        address gasToken,\n        uint256 gasFeeAmount,\n        address refundAddress\n    );\n\n    event GasPaidForContractCallWithToken(\n        address indexed sourceAddress,\n        string destinationChain,\n        string destinationAddress,\n        bytes32 indexed payloadHash,\n        string symbol,\n        uint256 amount,\n        address gasToken,\n        uint256 gasFeeAmount,\n        address refundAddress\n    );\n\n    event NativeGasPaidForContractCall(\n        address indexed sourceAddress,\n        string destinationChain,\n        string destinationAddress,\n        bytes32 indexed payloadHash,\n        uint256 gasFeeAmount,\n        address refundAddress\n    );\n\n    event NativeGasPaidForContractCallWithToken(\n        address indexed sourceAddress,\n        string destinationChain,\n        string destinationAddress,\n        bytes32 indexed payloadHash,\n        string symbol,\n        uint256 amount,\n        uint256 gasFeeAmount,\n        address refundAddress\n    );\n\n    // Get current owner\n    function owner() external view returns (address);\n\n    // This is called on the source chain before calling the gateway to execute a remote contract.\n    function payGasForContractCall(\n        address sender,\n        string calldata destinationChain,\n        string calldata destinationAddress,\n        bytes calldata payload,\n        address gasToken,\n        uint256 gasFeeAmount,\n        address refundAddress\n    ) external;\n\n    // This is called on the source chain before calling the gateway to execute a remote contract.\n    function payGasForContractCallWithToken(\n        address sender,\n        string calldata destinationChain,\n        string calldata destinationAddress,\n        bytes calldata payload,\n        string calldata symbol,\n        uint256 amount,\n        address gasToken,\n        uint256 gasFeeAmount,\n        address refundAddress\n    ) external;\n\n    // This is called on the source chain before calling the gateway to execute a remote contract.\n    function payNativeGasForContractCall(\n        address sender,\n        string calldata destinationChain,\n        string calldata destinationAddress,\n        bytes calldata payload,\n        address refundAddress\n    ) external payable;\n\n    // This is called on the source chain before calling the gateway to execute a remote contract.\n    function payNativeGasForContractCallWithToken(\n        address sender,\n        string calldata destinationChain,\n        string calldata destinationAddress,\n        bytes calldata payload,\n        string calldata symbol,\n        uint256 amount,\n        address refundAddress\n    ) external payable;\n\n    function collectFees(address payable receiver, address[] calldata tokens) external;\n\n    function refund(\n        address payable receiver,\n        address token,\n        uint256 amount\n    ) external;\n\n    function setup(bytes calldata data) external;\n\n    function upgrade(\n        address newImplementation,\n        bytes32 newImplementationCodeHash,\n        bytes calldata params\n    ) external;\n}\n\ncontract NftLinker is ERC721, IAxelarExecutable {\n    using StringToAddress for string;\n    using AddressToString for address;\n\n    error AlreadyInitialized();\n\n    mapping(uint256 => bytes) public original; //abi.encode(originaChain, operator, tokenId);\n    string chainName;   //To check if we are the source chain.\n    IAxelarGasReceiver gasReceiver;\n\n    constructor(string memory chainName_, address gateway_, address gasReceiver_) IAxelarExecutable(address(0)) ERC721('JUNCTION NFT Linker', 'JC') {\n        gasReceiver = IAxelarGasReceiver(gasReceiver_);\n        gateway = IAxelarGateway(gateway_);\n        chainName = chainName_;\n    }\n\n    function init(string memory chainName_, address gateway_, address gasReceiver_) external {\n        if(address(gateway) != address(0) || address(gasReceiver) != address(0)) revert AlreadyInitialized();\n        gasReceiver = IAxelarGasReceiver(gasReceiver_);\n        gateway = IAxelarGateway(gateway_);\n        chainName = chainName_;\n    }\n\n    //The main function users will interract with.\n    function sendNFT(\n        address operator,  // NFT   or Linker (0x7539F1999dCE56308468BEE4CB60990679d75945)\n        uint256 tokenId, \n        string memory destinationChain, \n        address destinationAddress\n    ) external payable {\n        //If we are the operator then this is a minted token that lives remotely.\n        if(operator == address(this)) {\n            require(ownerOf(tokenId) == _msgSender(), 'NOT_YOUR_TOKEN');\n            _sendMintedToken(tokenId, destinationChain, destinationAddress);\n        } else {\n            IERC721(operator).transferFrom(_msgSender(), address(this), tokenId);\n            _sendNativeToken(operator, tokenId, destinationChain, destinationAddress);\n        }\n    }\n\n    function mint(address to, uint256 tokenId) external {\n        _mint(to, tokenId);\n    }\n\n    //Burns and sends a token.\n    function _sendMintedToken(\n        uint256 tokenId, \n        string memory destinationChain, \n        address destinationAddress\n    ) internal {\n        _burn(tokenId);\n        //Get the original information.\n        (\n            string memory originalChain,\n            address operator,\n            uint256 originalTokenId\n        ) = abi.decode(original[tokenId], (string, address, uint256));\n        //Create the payload.\n        bytes memory payload = abi.encode(originalChain, operator, originalTokenId, destinationAddress);\n        string memory stringAddress = address(this).toString();\n        //Pay for gas. We could also send the contract call here but then the sourceAddress will be that of the gas receiver which is a problem later.\n        gasReceiver.payNativeGasForContractCall{value:msg.value}(\n            address(this),\n            destinationChain, \n            stringAddress, \n            payload,\n            msg.sender\n        );\n        //Call the remote contract.\n        gateway.callContract(\n            destinationChain, \n            stringAddress, \n            payload\n        );\n    }\n    //Locks and sends a token.\n    function _sendNativeToken(\n        address operator, \n        uint256 tokenId, \n        string memory destinationChain, \n        address destinationAddress\n    ) internal {\n        //Create the payload.\n        bytes memory payload = abi.encode(chainName, operator, tokenId, destinationAddress);\n        string memory stringAddress = address(this).toString();\n        //Pay for gas. We could also send the contract call here but then the sourceAddress will be that of the gas receiver which is a problem later.\n        gasReceiver.payNativeGasForContractCall{value: msg.value}(\n            address(this),\n            destinationChain, \n            stringAddress, \n            payload,\n            msg.sender\n        );\n        //Call remote contract.\n        gateway.callContract(\n            destinationChain, \n            stringAddress, \n            payload\n        );\n    }\n\n    //This is automatically executed by Axelar Microservices since gas was payed for.\n    function _execute(string memory /*sourceChain*/, string memory sourceAddress, bytes calldata payload) internal override {\n        //Check that the sender is another token linker.\n        require(sourceAddress.toAddress() == address(this), 'NOT_A_LINKER');\n        //Decode the payload.\n        (\n            string memory originalChain,\n            address operator,\n            uint256 tokenId,\n            address destinationAddress\n        ) = abi.decode(payload, (string, address ,uint256, address));\n        //If this is the original chain then we give the NFT locally.\n        if(keccak256(bytes(originalChain)) == keccak256(bytes(chainName))) {\n            IERC721(operator).transferFrom(address(this), destinationAddress, tokenId);\n        //Otherwise we need to mint a new one.\n        } else {\n            //We need to save all the relevant information.\n            bytes memory originalData = abi.encode(originalChain, operator, tokenId);\n            //Avoids tokenId collisions.\n            uint256 newTokenId = uint256(keccak256(originalData));\n            original[newTokenId] = originalData;\n            _safeMint(destinationAddress, newTokenId);\n        }\n    }\n}",
  "sourcePath": "/Users/pjt137/SynologyDrive/proj/junction-blockchain/contracts/NftLinker.sol",
  "compiler": {
    "name": "solc",
    "version": "0.8.9+commit.e5eed63a.Emscripten.clang"
  },
  "schemaVersion": "3.4.9",
  "updatedAt": "2022-08-20T20:26:03.955Z",
  "networkType": "ethereum",
  "devdoc": {
    "kind": "dev",
    "methods": {
      "approve(address,uint256)": {
        "details": "See {IERC721-approve}."
      },
      "balanceOf(address)": {
        "details": "See {IERC721-balanceOf}."
      },
      "getApproved(uint256)": {
        "details": "See {IERC721-getApproved}."
      },
      "isApprovedForAll(address,address)": {
        "details": "See {IERC721-isApprovedForAll}."
      },
      "name()": {
        "details": "See {IERC721Metadata-name}."
      },
      "ownerOf(uint256)": {
        "details": "See {IERC721-ownerOf}."
      },
      "safeTransferFrom(address,address,uint256)": {
        "details": "See {IERC721-safeTransferFrom}."
      },
      "safeTransferFrom(address,address,uint256,bytes)": {
        "details": "See {IERC721-safeTransferFrom}."
      },
      "setApprovalForAll(address,bool)": {
        "details": "See {IERC721-setApprovalForAll}."
      },
      "supportsInterface(bytes4)": {
        "details": "See {IERC165-supportsInterface}."
      },
      "symbol()": {
        "details": "See {IERC721Metadata-symbol}."
      },
      "tokenURI(uint256)": {
        "details": "See {IERC721Metadata-tokenURI}."
      },
      "transferFrom(address,address,uint256)": {
        "details": "See {IERC721-transferFrom}."
      }
    },
    "version": 1
  },
  "userdoc": {
    "kind": "user",
    "methods": {},
    "version": 1
  }
}